:040000000201BE3209
:03000B000201BA35
:0300110002000EDC
:03000E000201727A
:20001400852EE060FB20E7F8152E852CE060FB20E7F8152CE5307021E5212433F876317559
:200034003001E53170067531310200CFE53260030200CF7532310200CF7401B5301CE521D7
:200054002433F87632753003E5317005753132806AE532706675323280617403B5301CE59C
:20007400212433F87633753007E53170057531338049E532704575323380407407B5301C98
:20009400E5212433F8763475300FE53170057531348028E5327024753234801F740FB530FF
:2000B4001AE5212433F8763575301FE53170057531358007E5327003753235E5212433F9A5
:2000D400879910990280FB75993E10990280FBE5212433F9E7FFB5310875993010991480AF
:2000F400FBE5212433F9E7FFB5320875993110990280FB052C75820A1201C5852CE060FB6B
:2001140020E7F8152CE5212433F9E7FFB5311F753100E5212433F9879910990280FB7599FA
:200134007E10990280FB75993010992B80FBE5212433F9E7FFB5321F753200E5212433F93B
:20015400879910990280FB75997E10990280FB75993110990280FB052C052E02039D43895C
:2001740020758DFA759850D28E75300075310075320075330075340075350075360090006A
:200194001412028A90001412028A90001412028A90001412028A90001412028A752C01757A
:1101B4002D00752E022202042B32020248222222220F
:2001C500AF82C2AFE52170198F05FE7508088E098D828E83120587AD82AE27ED2EF52780C2
:2001E500597401B5211A8F057E007508088E098D828E83120587AD82AE28ED2EF528803A59
:200205007402B5211A8F057E007508088E098D828E83120587AD82AE29ED2EF529801B7439
:2002250003B521167E007508088E098F828E83120587AE82AF2AEE2FF52AD2AF02032C85F4
:200245002B8222C2AF75200075210075890075A882D28C752B007527007528007529007547
:200265002A00752F04752C01752E02D2AF90017212028AE5212423F98781D0D0D083D082AB
:20028500D0F0D0E022852FE060FB20E7F8152FC2AFE4F53AF53BF53CE52020E0084320013F
:2002A500753A008025E52020E108432002753A018018E52020E208432004753A02800BE593
:2002C5002020E306432008753A03E53A7007753B3FF53C80257401B53A08753B4F753C0854
:2002E50080187402B53A08753B5F753C10800B7403B53A06753B6F753C1885813D853B81C1
:20030500C082C08385E03E75E000C0E0C0E0C0E0C0E0C03CE53A2423F8A681853D81853E54
:20032500E0D2AF853A8222C0E0C0F0C082C083C0D0E5212423F8A681AE217F008E828F83B3
:20034500A37508048F09120551AE82AF838E21E5217009E52030E004E527602A7401B521EA
:2003650009E52030E104E528601C7402B52109E52030E204E529600E7403B521BBE52030A3
:20038500E3B6E52A70B2E5212423F98781D0D0D083D082D0F0D0E022C2AFE5217006532009
:2003A500FE7527007401B521065320FD7528007402B521065320FB7529007403B52106533C
:2003C50020F7752A00052FD2AFAE217F008E828F83A37508048F09120551AE82AF838E2108
:2003E5008521F005F0E5208002C313D5F0FB30E0D8E5217004E527601B7401B52104E5280B
:2004050060127402B52104E52960097403B521B9E52A70B5E5212423F98781D0D0D083D053
:2004250082D0F0D0E022C2AFC0E0C0F0C082C083C0D0E5212423F8A68188E089F08A828BE9
:2004450083E52BFF04F52BE5276005E52714F527E5286005E52814F528E5296005E52914EF
:20046500F529E52A6005E52A14F52AAE217F008E828F83A37508048F09120551AE82AF83AD
:200485008E21E5277009E5217005E52020E02AE528700A7401B52105E52020E11CE5297002
:2004A5000A7402B52105E52020E20EE52A70BC7403B521B7E52030E3B2A8E0A9F0AA82ABC6
:1604C50083E5212423F98781D0D0D083D082D0F0D0E0D2AF3222C6
:2004DB00E508450960467A01E50825E0F508E509334012F509E5829508E583950940030AEE
:2004FB0080E6C3E50913F509E50813F508C3E5829508F5F0E58395094005F58385F082C393
:0D051B00E50913F509E50813F508DAE122FA
:200528007A10E4FBFCE58225E0F582E58333F583EB33FBEC33FCEB9508F5F0EC95094006E7
:09054800FCABF0438201DADD2274
:20055100C2D5E58330E70DD2D5E4C39582F582E49583F583E50930E70BE4C39508F508E4E2
:160571009509F5091204DB30D50BE4C39582F582E49583F583220C
:20058700C2D5E58330E70DD2D5E4C39582F582E49583F583E50930E70DB2D5E4C39508F50F
:1805A70008E49509F50912052830D50BE4C39582F582E49583F583229A
:00000001FF
